:020000040000FA
:100000000C9462000C948A000C948A000C948A0070
:100010000C948A000C948A000C948A000C948A0038
:100020000C948A000C949E030C948A000C948A0011
:100030000C948A000C948A000C948A000C948A0018
:100040000C94FC020C948A000C946C030C944603F0
:100050000C948A000C948A000C948A000C948A00F8
:100060000C948A000C948A000000000024002700F1
:100070002A0000000000250028002B0000000000DE
:1000800023002600290004040404040404040202DA
:100090000202020203030303030301020408102007
:1000A0004080010204081020010204081020000012
:1000B0000008000201000003040700000000000027
:1000C00000001C0B11241FBECFEFD8E0DEBFCDBF58
:1000D00011E0A0E0B1E0E6EEF6E102C005900D927D
:1000E000A833B107D9F722E0A8E3B1E001C01D921F
:1000F000A530B207E1F710E0C2E6D0E004C02197D6
:10010000FE010E946B0BC136D107C9F70E94100493
:100110000C94710B0C9400008091040190910501E6
:10012000A0910601B09107010196A11DB11D809318
:10013000040190930501A0930601B093070108956F
:10014000AF92BF92CF92DF92EF92FF920F931F93E5
:10015000CF93DF936C017B018B01040F151FEB0123
:100160005E01AE18BF08C017D10759F06991D601DA
:10017000ED91FC910190F081E02DC6010995892B4C
:1001800079F7C501DF91CF911F910F91FF90EF900B
:10019000DF90CF90BF90AF900895FC01538D448DB8
:1001A000252F30E0842F90E0821B930B541710F022
:1001B000CF96089501970895FC01918D828D98172F
:1001C00061F0A28DAE0FBF2FB11D5D968C91928D07
:1001D0009F5F9F73928F90E008958FEF9FEF089538
:1001E000FC01918D828D981731F0828DE80FF11D01
:1001F000858D90E008958FEF9FEF0895FC01918D1C
:10020000228D892F90E0805C9F4F821B91098F7314
:100210009927089588E691E00E94FE0021E0892B4D
:1002200009F420E0822F089580E090E0892B29F0E6
:100230000E940A0181110C9400000895FC01A48D14
:10024000A80FB92FB11DA35ABF4F2C91848D90E0F8
:1002500001968F739927848FA689B7892C93A089DB
:10026000B1898C91837080648C93938D848D981365
:1002700006C00288F389E02D80818F7D80830895F8
:10028000EF92FF920F931F93CF93DF93EC0181E0E6
:10029000888F9B8D8C8D98131AC0E889F98980818D
:1002A00085FF15C09FB7F894EE89FF896083E889C0
:1002B000F98980818370806480839FBF81E090E0B2
:1002C000DF91CF911F910F91FF90EF900895F62E3F
:1002D0000B8D10E00F5F1F4F0F731127E02E8C8DD9
:1002E0008E110CC00FB607FCFACFE889F98980811E
:1002F00085FFF5CFCE010E941E01F1CFEB8DEC0FF3
:10030000FD2FF11DE35AFF4FF0829FB7F8940B8F3A
:10031000EA89FB8980818062CFCFCF93DF93EC01A4
:10032000888D8823B9F0AA89BB89E889F9898C91DD
:1003300085FD03C0808186FD0DC00FB607FCF7CF99
:100340008C9185FFF2CF808185FFEDCFCE010E9499
:100350001E01E9CFDF91CF910895833081F028F419
:10036000813099F08230A9F008958730A9F0883063
:10037000C9F08430B1F4809180008F7D03C08091FA
:1003800080008F7780938000089584B58F7784BD37
:10039000089584B58F7DFBCF8091B0008F778093D7
:1003A000B00008958091B0008F7DF9CFCF93DF9397
:1003B000282F30E0F901E255FF4F8491F901E6560C
:1003C000FF4FD491F901EA57FF4FC491CC23A1F01C
:1003D00081110E94AD01EC2FF0E0EE0FFF1FE458F9
:1003E000FF4FA591B491EC91ED2381E090E009F4E9
:1003F00080E0DF91CF91089580E090E0FACF1F93E5
:10040000CF93DF93282F30E0F901E255FF4F84911D
:10041000F901E656FF4FD491F901EA57FF4FC49115
:10042000CC23A9F0162F81110E94AD01EC2FF0E032
:10043000EE0FFF1FEE58FF4FA591B4918FB7F894C0
:10044000EC91111108C0D095DE23DC938FBFDF91B2
:10045000CF911F910895DE2BF8CFCF93DF9390E0DB
:10046000FC01E656FF4F24918A579F4FFC0184916F
:100470008823C9F090E0880F991FFC01E859FF4FCD
:10048000A591B491FC01EE58FF4FC591D491611133
:100490000DC09FB7F8948C91209582238C9388810E
:1004A000282328839FBFDF91CF910895623051F4B4
:1004B0009FB7F8943C91822F809583238C93E88199
:1004C0002E2BEFCF8FB7F894EC912E2B2C938FBF60
:1004D000EACF806480937C0080917A00806480936E
:1004E0007A0080917A0086FDFCCF8091780090910F
:1004F00079000895FC0101900020E9F73197AF01E0
:10050000481B590BBC0188E691E00C94A0008F9227
:100510009F92AF92BF920F931F93CF93DF93CDB76C
:10052000DEB7A1970FB6F894DEBF0FBECDBF19A2FC
:10053000423008F44AE08E010F5D1F4F842E912C4B
:10054000B12CA12CA50194010E94490BE62FB90101
:10055000CA01EA30F4F4E05DD801EE938D01232B5B
:10056000242B252B79F790E080E0109719F0CD012E
:100570000E947A02A1960FB6F894DEBF0FBECDBFDF
:10058000DF91CF911F910F91BF90AF909F908F906F
:100590000895E95CE1CFCF92DF92EF92FF92CF9383
:1005A000DF936C01092E000CEE08FF0897FF19C0BD
:1005B0006DE288E691E00E944001EC016627772712
:1005C000CB016C197D098E099F094AE00E948702C0
:1005D0008C0F9D1FDF91CF91FF90EF90DF90CF9018
:1005E00008954AE0C701B601DF91CF91FF90EF90E7
:1005F000DF90CF900C9487021F920F920FB60F924C
:1006000011242F933F938F939F93AF93BF93809128
:10061000640190916501A0916601B09167013091EC
:10062000630123E0230F2D3758F50196A11DB11D5D
:10063000209363018093640190936501A093660108
:10064000B093670180915F0190916001A091610179
:10065000B09162010196A11DB11D80935F0190933D
:100660006001A0936101B0936201BF91AF919F912E
:100670008F913F912F910F900FBE0F901F90189563
:1006800026E8230F0296A11DB11DD2CF1F920F9213
:100690000FB60F9211242F933F934F935F936F9355
:1006A0007F938F939F93AF93BF93EF93FF9388E6CE
:1006B00091E00E941E01FF91EF91BF91AF919F9138
:1006C0008F917F916F915F914F913F912F910F90FB
:1006D0000FBE0F901F9018951F920F920FB60F929A
:1006E00011242F938F939F93EF93FF93E0917801C1
:1006F000F09179018081E0917E01F0917F0182FD8E
:100700001BC09081809181018F5F8F732091820146
:10071000821741F0E0918101F0E0E859FE4F958F9A
:1007200080938101FF91EF919F918F912F910F9075
:100730000FBE0F901F9018958081F4CF1F920F92DB
:100740000FB60F9211242F933F934F935F936F93A4
:100750007F938F939F93AF93BF93EF93FF9380917A
:100760003E0190913F018093B200809141019091B0
:100770004201A0914301B09144010196A11DB11D18
:100780008093410190934201A0934301B0934401AF
:100790008091410190914201A0914301B0914401A7
:1007A00040913A0150913B0160913C0170913D01B3
:1007B00084179507A607B70710F1809140018111B2
:1007C0001EC081E0809340018091410190914201DF
:1007D000A0914301B0914401841B950BA60BB70B6C
:1007E0008093410190934201A0934301B09344014F
:1007F000E0913801F0913901099510924001FF9183
:10080000EF91BF91AF919F918F917F916F915F9188
:100810004F913F912F910F900FBE0F901F90189501
:10082000CF93DF93CDB7DEB72A970FB6F894DEBF2C
:100830000FBECDBF789484B5826084BD84B58160DD
:1008400084BD85B5826085BD85B5816085BD80919B
:100850006E00816080936E00109281008091810013
:10086000826080938100809181008160809381000B
:10087000809180008160809380008091B1008460CD
:100880008093B1008091B00081608093B00080912E
:100890007A00846080937A0080917A0082608093ED
:1008A0007A0080917A00816080937A0080917A004A
:1008B000806880937A001092C10061E087E00E9416
:1008C0002D0261E088E00E942D0261E08DE00E942F
:1008D0002D0262E08BE00E942D0260E083E00E9426
:1008E0002D02E0917801F091790182E08083E0911E
:1008F0007401F09175011082E0917601F091770119
:100900008FEC808310928001E0917C01F0917D0159
:1009100086E08083E0917A01F0917B0180818061A3
:100920008083E0917A01F0917B01808188608083EF
:10093000E0917A01F0917B01808180688083E09171
:100940007A01F0917B0180818F7D808381E090E04E
:10095000A0E0B0E080933A0190933B01A0933C016A
:10096000B0933D018CE890E0909339018093380179
:10097000809170008E7F809370008091B0008C7F9A
:100980008093B0008091B100877F8093B100809107
:10099000B6008F7D8093B600809170008D7F80932C
:1009A00070008091B10084608093B1008091B100AB
:1009B0008C7F8093B10086E090E090933F0180931C
:1009C0003E01109241011092420110924301109297
:1009D00044011092400180913E0190913F0180932B
:1009E000B20080917000816080937000F8E02F2E3B
:1009F000312C83E00E9469027C0190931F01809357
:100A00001E0184E00E946902C2964C01880C991C68
:100A100090921D0180921C0140905E01512C712C1E
:100A2000612C40925A0150925B0160925C0170927D
:100A30005D0180915901282F30E050E040E029838A
:100A40003A834B835C832093550130935601409346
:100A500057015093580183E00E94D6018987809303
:100A60005E018BE00E94D60190911B0130911A012A
:100A70003A87409118015091190120911601309147
:100A800017014217530724F0109219011092180110
:100A900040911401509115012091120130911301E0
:100AA0004217530724F0109215011092140140913F
:100AB0001001509111015E834D83A0910E01B09100
:100AC0000F01B887AF83813049F580931B01809176
:100AD0001B01981739F1F0920D01E0920C01009181
:100AE000100110911101F8013197E930F10508F07A
:100AF0001EC1EB57FA4FC0905101D0905201E090C7
:100B00005301F09054010C946B0B7F06B606CB0694
:100B1000E406F60609071C072F0740078111D7CF07
:100B200082E0D3CF913009F073C080910C01909195
:100B30000D018E199F0997FF03C091958195910929
:100B40004F976CF220EB34E030930D0120930C01B1
:100B500041E050E034E1E316F10448F1C701449765
:100B60008634910538F482E090E0909311018093EF
:100B70001001B5CFC7018A559109A3E0B0E08639CD
:100B8000910558F1C701805F9109803A910538F4C9
:100B900024E030E03093110120931001A0CFC70171
:100BA000805991408639910538F445E050E05093E2
:100BB00011014093100193CFC701865292408639AC
:100BC000910518F486E090E0D0CFC7018C5B92408D
:100BD0008837910538F4A7E0B0E0B0931101A093F5
:100BE00010017DCFC701845393408C38910528F4C0
:100BF000309211012092100172CFB0ECEB1AB3E0E9
:100C0000FB0A49E050E020E4E216F10480F267CFED
:100C1000923009F064CF80910C0190910D018E19F2
:100C20009F0997FF03C09195819591094F970CF407
:100C300056CF80EB94E090930D0180930C01A1E0DE
:100C4000B0E094E1E916F10408F454C0C7014497F8
:100C500022E030E08634910528F1C7018A559109D8
:100C600043E050E08639910550F1C701805F91095A
:100C7000803A910538F484E090E090930F018093DE
:100C80000E012DCFC70180599140A5E0B0E0863913
:100C9000910580F1C701865292408639910538F45A
:100CA00026E030E030930F0120930E0118CFC701EA
:100CB0008C5B92408837910538F447E050E05093C0
:100CC0000F0140930E010BCFC701845393408C3822
:100CD000910528F430920F0120920E0100CF50ECC4
:100CE000E51A53E0F50A80E4E816F10408F0F7CEBF
:100CF000A9E0B0E0B0930F01A0930E01F0CED701B0
:100D0000C60164E0B695A795979587956A95D1F742
:100D100090930B0180930A0173E0F694E794D794C3
:100D2000C7947A95D1F7D0925001C0924F01A0900C
:100D30000E01B0900F01F5013197E930F10508F08F
:100D4000CAC0E355F94FC0905101D0905201E090D4
:100D50005301F09054010C946B0B5307C007D50757
:100D6000EE0700081308260839084A08D701C6010B
:100D700043E0B695A795979587954A95D1F79093B7
:100D80000B0180930A0152E0F694E794D794C7943C
:100D90005A95D1F7C8CFC701B60126E030E040E050
:100DA00050E00E94490B30930B0120930A01C701C8
:100DB000B60123E030E040E050E00E94490B309360
:100DC000500120934F01B3CFD701C60122E0B69561
:100DD000A795979587952A95D1F790930B018093C6
:100DE0000A01F694E794D794C7949DCFF694E794BC
:100DF000D794C794D0920B01C0920A01109250016F
:100E000010924F0121E030E030931701209316013A
:100E10008ECFF694E794D794C794D0920B01C092EA
:100E20000A011092500110924F0142E050E050939D
:100E30001701409316017BCFF694E794D794C7949B
:100E4000D0920B01C0920A011092500110924F01F2
:100E500084E090E0909317018093160168CFF69498
:100E6000E794D794C794D0920B01C0920A011092D4
:100E7000500110924F01309217012092160157CF66
:100E8000F694E794D794C794D0920B01C0920A01CC
:100E90001092500110924F01A0E1B0E0B093170101
:100EA000A093160144CFD701C60144E0B695A7959B
:100EB000979587954A95D1F79093090180930801FA
:100EC00053E0F694E794D794C7945A95D1F7D0920B
:100ED0004E01C0924D012D813E812017310729F42A
:100EE0004F8158854A155B0541F010921901109207
:100EF0001801109215011092140180910401909133
:100F00000501A0910601B0910701813A5FE09507C4
:100F1000A105B10508F4D1C010921A018A8581306B
:100F200061F41092040110920501109206011092D2
:100F3000070180911A018111D3C0092C000CAA0865
:100F4000BB088092510190925201A0925301B0923D
:100F500054018091040190910501A0910601B09186
:100F6000070185309105A105B10530F08815990577
:100F7000AA05BB0508F458C281E080935901E0C07E
:100F8000D701C60123E0B695A795979587952A9531
:100F9000D1F7909309018093080132E0F694E79429
:100FA000D794C7943A95D1F792CFC701B60126E0FE
:100FB00030E040E050E00E94490B3093090120935B
:100FC0000801C701B60123E030E040E050E00E9494
:100FD000490B30934E0120934D017DCFD701C601BF
:100FE000F2E0B695A79597958795FA95D1F79093E6
:100FF000090180930801F694E794D794C79467CFCA
:10100000F694E794D794C794D0920901C09208014E
:1010100010924E0110924D0121E030E03093130107
:101020002093120158CFF694E794D794C794D092A6
:101030000901C092080110924E0110924D0142E048
:1010400050E0509313014093120145CFF694E7947A
:10105000D794C794D0920901C092080110924E0112
:1010600010924D0184E090E090931301809312015F
:1010700032CFF694E794D794C794D0920901C092E6
:10108000080110924E0110924D01309213012092EE
:10109000120121CFF694E794D794C794D092090116
:1010A000C092080110924E0110924D01A0E1B0E0F3
:1010B000B0931301A09312010ECF803A9F40A10577
:1010C000B10529F03985313011F430931A014A8580
:1010D000413009F02ECF80911A01882309F421CFE5
:1010E0005985513069F5411451046104710441F589
:1010F0008091490190914A01A0914B01B0914C011E
:101100004091040150910501609106017091070121
:101110004093490150934A0160934B0170934C01F5
:10112000840F951FA61FB71FB695A795979587950E
:101130008093510190935201A0935301B0935401B5
:10114000F090590181E0F81272C161E08DE00E94D7
:10115000FF019985913029F445284628472809F44C
:101160008CC189819A81AB81BC81892B8A2B8B2B85
:1011700009F0BFC1809118019091190101969093D7
:101180001901809318011092040110920501109228
:1011900006011092070110920301109202011092B1
:1011A0004801053011050CF0A8C161E087E00E94FC
:1011B000FF0181E080934701A0910201B0910301FA
:1011C000BA83A98380914F0190915001A89F80011B
:1011D000A99F100DB89F100D1124C0900401D0904C
:1011E0000501E0900601F0900701C801012E000CF6
:1011F000AA0BBB0BC816D906EA06FB0658F080916D
:101200004701811107C081E08093470161E087E0D9
:101210000E94FF0180910A0190910B01080F191F94
:10122000012E000C220B330BC016D106E206F3068A
:1012300090F080914701813071F460E087E00E9476
:10124000FF0129813A812F5F3F4F309303012093A3
:1012500002011092470180910E0190910F019A8333
:10126000898310915E01113029F580915A01909186
:101270005B01A0915C01B0915D01892B8A2B8B2BC6
:10128000C9F4809114019091150101969093150174
:1012900080931401109201011092000110924601F6
:1012A000A981BA81159734F461E088E00E94FF01BA
:1012B0001093450110915901113039F58091550174
:1012C00090915601A0915701B0915801892B8A2B1A
:1012D0008B2BD9F480911401909115010196909374
:1012E00015018093140110920101109200011092D7
:1012F000460129813A81253031050CF06FC161E04A
:1013000088E00E94FF0110934501C0900401D09035
:101310000501E0900601F090070149815A814530AE
:1013200051050CF063C10091000110910101809101
:101330004D0190914E01089FD001099FB00D189F5B
:10134000B00D1124BA83A983CD01BB0FAA0BBB0B2F
:10135000C816D906EA06FB0658F0809145018111AE
:1013600007C081E08093450161E088E00E94FF01B1
:10137000809108019091090129813A81820F931F80
:10138000092E000CAA0BBB0BC816D906EA06FB06F1
:1013900080F080914501813061F460E088E00E9436
:1013A000FF010F5F1F4F1093010100930001109286
:1013B00045014AE0C701B6010E94870282E391E03D
:1013C0000E947A022091470184EF91E0DC012A9F7C
:1013D000C0012B9F900D11240E94CB0282E391E06B
:1013E0000E947A02809118019091190120E5AC01C8
:1013F000249FC001259F900D11240E94CB0286E3FB
:1014000091E00E947A0284E391E00E947A0280E0F7
:1014100090E0892B09F4EDCA0E940A01882309F49F
:10142000E8CA0E940000E5CA1092590189CE809155
:10143000510190915201A0915301B0915401B69580
:10144000A79597958795409104015091050160916A
:10145000060170910701481759076A077B0708F4CE
:1014600044C060E08DE00E94FF01A985A13009F031
:1014700040C0452846284728E1F5209118013091C1
:1014800019013E832D83C901019690931901809320
:101490001801109204011092050110920601109299
:1014A00007011092030110920201109248010530C9
:1014B00011050CF064C061E087E00E94FF0181E04B
:1014C00080934701F81270C029813A814B815C8179
:1014D000232B242B252B09F06FCE8D819E81029624
:1014E000909319018093180160CEB985B13009F449
:1014F000C0CF053011050CF45FCE8091180190919A
:1015000019010530110551F5019769F480914801E1
:10151000811109C081E0809347018093480161E017
:1015200087E00E94FF0180910A0190910B01092E32
:10153000000CAA0BBB0B4091040150910501609176
:10154000060170910701481759076A077B0708F4DD
:1015500082CE60E087E00E94FF017BCE019719F701
:10156000809148018111DFCF31E03093470161E084
:1015700087E00E94FF0141E040934801D4CF51E051
:10158000F512BBCF89819A81AB81BC81892B8A2BD3
:101590008B2B09F0B2CF4D815E814E5F5F4F509330
:1015A000190140931801A9CFA0910201B091030144
:1015B000BA83A98380914F0190915001A89F800127
:1015C000A99F100DB89F100D1124C0900401D09058
:1015D0000501E0900601F090070111CEC0900401D2
:1015E000D0900501E0900601F09007018091140170
:1015F00090911501019769F480914601811109C00C
:1016000081E0809345018093460161E088E00E947B
:10161000FF018091080190910901092E000CAA0B8D
:10162000BB0BC816D906EA06FB0608F4C2CE60E07A
:1016300088E00E94FF01BBCEE8E6F1E0138212824F
:1016400088EE93E0A0E0B0E084839583A683B7831F
:1016500084E291E09183808385EC90E09587848794
:1016600084EC90E09787868780EC90E0918B808B6C
:1016700081EC90E0938B828B82EC90E0958B848B55
:1016800086EC90E0978B868B118E128E138E148EC3
:101690000895A1E21A2EAA1BBB1BFD010DC0AA1FB3
:1016A000BB1FEE1FFF1FA217B307E407F50720F0CB
:1016B000A21BB30BE40BF50B661F771F881F991F46
:1016C0001A9469F760957095809590959B01AC018F
:1016D000BD01CF010895EE0FFF1F0590F491E02D9D
:1016E0000994F894FFCF01000100900100000A0066
:1016F0000A000002050005000100010001000100D0
:101700000101E8030002000000004001A000CD003C
:0E1710008D01FE00DC00F0002C000D0A000030
:107E0000112484B714BE81FFF0D085E080938100F7
:107E100082E08093C00088E18093C10086E0809377
:107E2000C20080E18093C4008EE0C9D0259A86E02C
:107E300020E33CEF91E0309385002093840096BBD3
:107E4000B09BFECF1D9AA8958150A9F7CC24DD24C4
:107E500088248394B5E0AB2EA1E19A2EF3E0BF2EE7
:107E6000A2D0813461F49FD0082FAFD0023811F036
:107E7000013811F484E001C083E08DD089C08234E0
:107E800011F484E103C0853419F485E0A6D080C0E4
:107E9000853579F488D0E82EFF2485D0082F10E0AE
:107EA000102F00270E291F29000F111F8ED06801E7
:107EB0006FC0863521F484E090D080E0DECF843638
:107EC00009F040C070D06FD0082F6DD080E0C81688
:107ED00080E7D80618F4F601B7BEE895C0E0D1E017
:107EE00062D089930C17E1F7F0E0CF16F0E7DF06D8
:107EF00018F0F601B7BEE89568D007B600FCFDCFD4
:107F0000A601A0E0B1E02C9130E011968C91119780
:107F100090E0982F8827822B932B1296FA010C0160
:107F200087BEE89511244E5F5F4FF1E0A038BF0790
:107F300051F7F601A7BEE89507B600FCFDCF97BE46
:107F4000E89526C08437B1F42ED02DD0F82E2BD052
:107F50003CD0F601EF2C8F010F5F1F4F84911BD097
:107F6000EA94F801C1F70894C11CD11CFA94CF0C13
:107F7000D11C0EC0853739F428D08EE10CD085E9AC
:107F80000AD08FE07ACF813511F488E018D01DD067
:107F900080E101D065CF982F8091C00085FFFCCF94
:107FA0009093C60008958091C00087FFFCCF809118
:107FB000C00084FD01C0A8958091C6000895E0E648
:107FC000F0E098E1908380830895EDDF803219F02E
:107FD00088E0F5DFFFCF84E1DECF1F93182FE3DFCA
:107FE0001150E9F7F2DF1F91089580E0E8DFEE27F6
:047FF000FF270994CA
:027FFE00040479
:00000001FF
